:1000000000040020E9040000EB040000EB04000001
:10001000EB040000EB040000EB040000EB04000024
:10002000EB040000EB040000EB040000DF3C0000E8
:10003000EB040000EB040000EB040000ED450000C1
:10004000EB040000EB040000EB040000EB040000F4
:10005000EB040000EB040000EB040000EB040000E4
:10006000EB040000EB040000EB040000EB040000D4
:10007000EB040000EB040000EB040000EB040000C4
:10008000EB040000EB040000EB040000EB040000B4
:10009000EB040000EB040000EB040000EB040000A4
:1000A000EB040000EB040000EB040000EB04000094
:1000B000EB040000EB040000EB040000EB04000084
:1000C000EB040000EB040000EB040000EB04000074
:1000D000EB040000EB040000EB040000EB04000064
:1000E000EB040000EB040000EB040000EB04000054
:1000F000EB040000EB040000EB040000EB04000044
:10010000EB040000EB040000EB040000EB04000033
:10011000EB040000A94B0000EB040000EB0400001E
:10012000EB040000EB040000EB040000EB04000013
:10013000EB040000EB040000EB040000EB04000003
:10014000EB040000EB040000EB040000EB040000F3
:10015000EB040000EB040000EB040000EB040000E3
:10016000EB040000EB040000EB040000EB040000D3
:10017000EB040000EB040000EB040000EB040000C3
:10018000EB040000EB040000EB040000EB040000B3
:10019000EB040000EB040000EB040000EB040000A3
:1001A000EB040000EB040000EB040000EB04000093
:1001B000EB040000EB040000EB040000EB04000083
:1001C000EB040000EB040000EB040000EB04000073
:1001D000EB040000EB040000EB040000EB04000063
:10040000FFFFFFFFFFFFFFFFFFFFFFFF7EFFFFFF7D
:1004100072B6274880F30888264880F30988264862
:100420004EF60851CEF200010860022080F31488D5
:10043000BFF36F8F03F050FA03F08FF94FF0553090
:100440001E491B4A91423CBF41F8040BFAE71C4984
:10045000184A91423CBF41F8040BFAE719491A4A7D
:100460001A4B9A423EBF51F8040B42F8040BF8E7CE
:1004700000201749174A91423CBF41F8040BFAE7A4
:1004800003F02EFA03F029FA134C144DAC4203DAB0
:1004900054F8041B8847F9E702F0FAF8104C114DA4
:1004A000AC4203DA54F8041B8847F9E703F016BAA4
:1004B00000040020000C00200000000000000020CC
:1004C00000040020A8560000000C0020940C00201E
:1004D000000E002024290020100400001004000059
:1004E000100400001004000092E700F000F8FEE79E
:1004F0002DE9F04FC1F80CD0C3689D46BDE8F08FE0
:10050000002383F311882846A047002003F0BEFB98
:10051000FEE703F055FB00DFFEE7000053B94AB9E0
:10052000002908BF00281CBF4FF0FF314FF0FF30FB
:1005300000F07AB9ADF1080C6DE904CE00F006F8D0
:10054000DDF804E0DDE9022304B070472DE9F0474F
:100550008C460D460446089E002B51D18A42174610
:100560006DD9B2FA82FEBEF1000F0BD0CEF1200C95
:1005700001FA0EF520FA0CFC02FA0EF74CEA050C13
:1005800000FA0EF44FEA174A250CBCFBFAF81FFAE2
:1005900087F90AFB18CC45EA0C4508FB09F3AB4286
:1005A0000AD9ED1908F1FF3280F02381AB4240F205
:1005B0002081A8F102083D44ED1AA4B2B5FBFAF07F
:1005C0000AFB105544EA054400FB09F9A14509D985
:1005D000E41900F1FF3380F00A81A14540F2078160
:1005E00002383C44A4EB090440EA08400021002EF4
:1005F00061D024FA0EF4002334607360BDE8F08704
:100600008B4207D9002E54D0002186E821000846ED
:10061000BDE8F087B3FA83F1002940F08E80AB4249
:1006200002D3824200F2FA80841A65EB03050120AE
:10063000AC46002E3FD086E81010BDE8F08712B916
:100640000127B7FBF2F7B7FA87FEBEF1000F34D1EE
:10065000EB1B3A0C1FFA87FC0121B3FBF2F8250CC7
:1006600002FB183345EA03450CFB08F3AB4207D9FC
:10067000ED1908F1FF3002D2AB4200F2D180804682
:10068000ED1AA3B2B5FBF2F002FB105543EA0544A4
:100690000CFB00FCA44507D9E41900F1FF3302D29A
:1006A000A44500F2B8801846A4EB0C0440EA0840C8
:1006B0009DE731463046BDE8F087CEF1200405FACB
:1006C0000EF307FA0EF720FA04F83A0C25FA04F4B0
:1006D00048EA0308B4FBF2F14FEA184502FB114463
:1006E0001FFA87FC45EA044501FB0CF3AB4200FA14
:1006F0000EF409D9ED1901F1FF3080F08A80AB4288
:1007000040F2878002393D44EB1A1FFA88F5B3FBAB
:10071000F2F002FB103345EA034500FB0CF3AB4259
:1007200007D9ED1900F1FF386FD2AB426DD902380D
:100730003D44EB1A40EA01418FE7C1F1200722FA5C
:1007400007F88B4005FA01F448EA030320FA07FE94
:100750004FEA134CFD404EEA040EB5FBFCF94FEA9C
:100760001E440CFB19551FFA83F844EA054509FBA2
:1007700008F4AC4202FA01F200FA01FA08D9ED18C5
:1007800009F1FF3043D2AC4241D9A9F102091D441D
:100790002D1B1FFA8EFEB5FBFCF00CFB10554EEA2C
:1007A000054400FB08F8A04507D9E41800F1FF351F
:1007B00029D2A04527D902381C4440EA0940A4EBBD
:1007C0000804A0FB02894C45C6464D4615D312D0FD
:1007D00056B1BAEB0E0364EB050404FA07F7CB40FD
:1007E0001F43CC40376074600021BDE8F087184695
:1007F000F8E69046E0E6C245EAD2B8EB020E69EBB5
:1008000003050138E4E72846D7E7404691E78146EB
:10081000BEE7014678E702383C4445E7084608E76A
:10082000A8F102083D442BE7704700BF10B5054C06
:1008300001F07AFD06220521204603F0F3FE202375
:10084000636010BD80F00F400120704701207047A9
:1008500008B5FFF7FBFF08BD704708B5FFF7FCFFC1
:1008600008BD000013B502AB03E903000F4B1B7872
:10087000B3B99DF80230009873B16AB100F0A0FDE1
:1008800004460146009800F057FD0099204602B04A
:10089000BDE8104001F036BB00F072FD0446F4E7FD
:1008A000009800F08DFD0099F1E700BF000E0020D8
:1008B000034610B400885C880A4640EA04409988E0
:1008C00010BCFFF7CFBF0120704710B500210446D0
:1008D000FFF7EEFF2146FFF7C0FF10BD08B501F09E
:1008E00003FD00F0A3F8BDE80840FFF79FBF01F04B
:1008F0001DBD704708B500F05BFCFFF7FAFF46F23C
:10090000A81003F0C8F9BDE8084002F061BC38B592
:1009100001210546FFF7CCFF29460446FFF798FF63
:1009200008B9002038BD2946204602F0D1FA002837
:10093000F7D02946204602F027F90028F1D02946B1
:10094000204602F037FA0028EBD0AB785BB145F6D1
:100950005B539C421CD00AD8B4F5B84F12D045F670
:10096000DF439C4211D02846FFF76EFF38BD45F6A5
:100970005C539C420FD045F65D539C42F3D101F08D
:1009800071F9F0E7FFF7B6FFCBE701F001FAC8E72E
:1009900001F072F9E7E701F072F9E4E7002000F0F6
:1009A0006DB8704708B5FFF7FCFF08BD08B502F049
:1009B000E5FA00F063F8FFF7F5FF08BD704708B5EA
:1009C000FFF7FCFF08BD01207047000010B5C4B25E
:1009D000FFF7F9FF10B3E343DBB2114A13F0010F45
:1009E0004FF4804114BF516091600E4A13F0020F22
:1009F0004FF0800114BF51609160094A13F0040F59
:100A00004FF0200114BF5160916013F0080F4FF0B8
:100A10008062054B01D05A6010BD9A6010BD00BFC6
:100A200000F00F4080F00F4000F10F4038B5114C3E
:100A3000114D204606220E2103F0F4FD4FF48043B1
:100A4000636006220721284603F0ECFD8023204640
:100A50006B600622052103F0E5FD2023636004F5A9
:100A6000807406221A21204603F0DCFD4FF08063DB
:100A7000636038BD00F00F4080F00F4010B50446B1
:100A8000FFF79DFF2046FFF7A1FF10BD30B587B0EF
:100A90008DE803009DF802306D460BB101F018F8A7
:100AA00004AC0023636095E80300ADF8141089B22C
:100AB0000490ADF80C0021B182B24FF6FF739A4258
:100AC00005D194E8030000F049FF07B030BD20468F
:100AD000FFF7F9FE0028F4D1F7E708B5008800F029
:100AE00091FC08BD38B5044600287FD0822816D175
:100AF00002F044FA810779D43D4C3921206802F094
:100B0000B8FA01F02BF842F2107003F0C4F8392162
:100B1000206802F0B0FABDE8384001F01FB8832821
:100B200010D102F02BFAC20760D4314C5321206857
:100B300002F09FFA01F012F842F2107003F0ABF8E5
:100B40005321E5E7842810D102F018FA43074DD469
:100B5000274C4721206802F08CFA00F0FFFF42F298
:100B6000107003F098F84721D2E7031FDBB2A02BE7
:100B700010D81F4D0146286802F048FA28B12146D6
:100B8000286802F078FA00F0E9FF2146286802F0B0
:100B900070FAC0E700F12003DBB2072B07D800F0A2
:100BA00007040120A040C0B200F06CFFB3E700F1E1
:100BB0005B03DBB2022B05D80E4AD05CBDE838409F
:100BC00002F0F6B900F15803DBB2162B06D80A4A38
:100BD00032F81300BDE8384002F0FAB9EC2805D924
:100BE00001F0D2FDBDE8384001F0A8BE38BD00BF1D
:100BF000040C0020A6500000AA50000010B50146C9
:100C0000002862D0822812D102F0B8F981075CD5A1
:100C10002E4C3921206802F02CFA00F09FFF392178
:100C2000206802F028FABDE8104000F097BF832842
:100C30000CD102F0A3F9C20747D5244C53212068F8
:100C400002F017FA00F08AFF5321E9E784280CD15B
:100C500002F094F9430738D51C4C4721206802F074
:100C600008FA00F07BFF4721DAE7031FDBB2A02B75
:100C700002D8164B1868D4E700F12003DBB2072B2B
:100C800007D800F0070101208840C0B200F002FF41
:100C9000C9E700F15B03DBB2022B04D80020BDE8FA
:100CA000104002F085B900F15803DBB2162B04D8CE
:100CB0000020BDE8104002F08BB9EC2805D901F006
:100CC000C1FDBDE8104001F039BE10BD040C00208C
:100CD00038B505460C46FFF705FF24B92846BDE8A0
:100CE0003840FFF78BBF6420013C02F0D4FFA4B270
:100CF000F3E739280CBF50210021FFF7E9BF08B501
:100D000028B100F0BFFEBDE8084000F027BF08BDD5
:100D100008B528B100F0BEFEBDE8084000F01EBFD7
:100D200008BD00002DE9F04790F806A085788046C0
:100D30000C4600F097FE4FEA1A1A0746C0B12F463C
:100D4000B5B1C4F3072303F0F003402B04D004F142
:100D50002003DBB2072B22D9AB4B5B7858071ED49C
:100D6000022000F04BFF00F07DFE80F00100C7B2D2
:100D7000C4F30339B9F10F0F42D8DFE819F01200BC
:100D8000120047004700AD00D90041004100E300D8
:100D90003B014F014F01A80141004100B101002773
:100DA000E6E7C4F3072313F0F00F16BF2609C4F3D8
:100DB000032606F0F006E4B285B156B104F1200333
:100DC000DBB2072B304600D92CB900F05BFE00F0F7
:100DD000C5FE20463CE000F06BFEF8E72046FFF73A
:100DE0000DFF6EB104F12003DBB2072B304600D9B2
:100DF00014B900F04FFE01E000F062FE00F0AEFE1C
:100E0000A9F10809B9F1030F76D8B9E0C4F30723B3
:100E100003F0F003202B14BF2609C4F30326E4B229
:100E200018BF06F0F0063CB1012C3DD0002D45D096
:100E3000BAF1000F3CD0CCE7734B5B78590711D562
:100E40004DB126B1304600F01DFE00F087FE0020B7
:100E5000FFF748FED4E72846FFF7D0FE002ECFD09C
:100E60003046C6E79DB1BAF1000F06D100F04CFE46
:100E70003043C0B2FFF743FFC2E7BAF1010FF5D12B
:100E800000F042FE3043C0B200F04AFEB8E7BAF1CB
:100E9000000F05D100F056FE3046FFF739FFAFE7EF
:100EA000BAF1010FF6D1ABE725B1BAF1050FA7D81A
:100EB0003046DFE7BAF1040FA2D8EDE7BAF1000F30
:100EC000EAD0392C0CBF4FF4FA50012002F0E3FEB7
:100ED0002046FFF793FE93E7C4F381233BB1012B38
:100EE0008ED11DB3C4F3090002F072F804E0DDB145
:100EF000C4F3090002F05CF8002F00F0F88000F065
:100F0000A9FD10F0010040F0F28088F8020000F026
:100F100099FD00F0D7F9404600F0FEF800F092FD90
:100F2000BDE8F04700F0D8B92846E3E72846DBE7FC
:100F3000E0B225B101F028FC01F000FDDCE701F092
:100F400081FCF9E714F4407F28D1CDB9C4F34210F5
:100F5000E2064FEA800048BF0F25C0B248BF854077
:100F600004F00F03C4F3812448BFED438340022CF7
:100F700045EA03000CD00ED8012C06D000F078F919
:100F800001F0FCFFFFF77AFDB6E700F069F9F7E73B
:100F900000F076F9F4E700F060F9F1E7F5B1C4F399
:100FA0000023002BECD0C4F342108000C3B204F045
:100FB0000F0000FA03F214F010001CBF0F2098403D
:100FC000C4F3812418BFC043022C40EA02000BD0B6
:100FD0000DD8012C05D000F09DF9D1E7C4F34023D2
:100FE000DFE700F08FF9CBE700F09CF9C8E700F0ED
:100FF00055F9C5E7E6B24DB1C4F3032000F062F93C
:101000003046FFF77CFEBBE7D42600203046FFF7D2
:101010007FFEC4F3032000F05FF9B1E7E6B2A6F16A
:10102000F003042B41D8DFE803F0032310161F0060
:1010300045B1BAF1040F3FF6E3AEC4F3042000F06B
:1010400057F9DDE6BAF1050FF5E79DB1C4F30420C9
:1010500000F042F9D4E625B1C4F3042000F02DF9E4
:10106000CEE600F027F9CBE6224B5B785B0706D58E
:10107000002DEBD0C4F3042000F024F9C0E64DB1FC
:10108000C4F30424204600F01DF90321204600F09B
:1010900091FDB5E6012000F0B1FDBAF1010F7FF638
:1010A000AFAE022000F0AAFDAAE625B1BAF1000F0A
:1010B000E0D03046CCE6BAF1000FC7D0392E0CBFD5
:1010C0004FF4FA50012002F0E6FD304601E7C4F388
:1010D0000322E1B2404600F011FF00F0BFF90BE738
:1010E000C4F30322E1B2404600F00AFF04E7BDE882
:1010F000F08700BFD426002038B5018804468078E8
:1011000000F08CF9054600F015F900F0A5F8294625
:101110002046FFF707FE38BD37B5858804460146EF
:10112000022201A803F0D3FEF5B1BDF804204FF66A
:10113000FF739A4218D02046FFF7E9FB70B900F020
:1011400091FC88B1A3787BB1084B5B785B070BD42B
:10115000022003B0BDE8304000F050BD2046FFF74C
:10116000CBFF2046FFF7B1FB03B030BDD4260020F3
:1011700008B5002001F01CFF002001F029FF00F05D
:10118000A7FC00F0BBFC00F0E9FC01F0BDFCBDE8F1
:10119000084001F0D3BB000008B5044B186801F00B
:1011A0006CFFBDE80840FFF7E3BF00BF040C002060
:1011B00008B500F077FCBDE80840FFF7EDBFC0F3CD
:1011C00003330E3303F00F020D2A0CD80123934092
:1011D00013F4105FC1B217D140F20330184004D1AC
:1011E00013F010030BD100207047F02902D003D870
:1011F000E729F8D801207047F429F4D1FAE7E72964
:10120000F8D9F129F6D07047C0F3C020704708B56F
:10121000008800F0F7F8FFF7D2FF08BD82B002ABFC
:1012200003E9030002B0704782B002AB03E9030098
:1012300002B07047704708B5FFF7FCFF08BD00001B
:1012400008B5FFF7F8FF034B1860BDE80840FFF74B
:101250008FBF00BF040E00207047FFF7F1BF0000F2
:10126000024B1B681843FFF7EBBF00BF040E0020C2
:10127000024B1B681840FFF7E3BF00BF040E0020BD
:10128000024B1B685840FFF7DBBF00BF040E002075
:10129000704708B5FFF7FCFF08BD000008B5FFF771
:1012A000F8FF034B1860BDE80840FFF761BF00BFBF
:1012B000080E00200020FFF7F1BF012303FA00F021
:1012C000FFF7ECBF012303FA00F0024B1B68184341
:1012D000FFF7E4BF080E0020012303FA00F0034BE0
:1012E0001B6823EA0000FFF7D9BF00BF080E0020EB
:1012F000012303FA00F0024B1B685840FFF7CEBFF2
:10130000080E0020024B1B681843FFF7C7BF00BF41
:10131000080E0020024B1B681840FFF7BFBF00BF3C
:10132000080E0020024B1B685840FFF7B7BF00BFF4
:10133000080E002070470000C0F30723C3EBC3036F
:1013400053FA80F3DBB237B503F007020120904077
:10135000DB080A4A03EB8303C0B2134400245D7820
:1013600021FA04F242F300026A40024001346A406A
:10137000052C03F8012FF2D103B030BD0B0E002075
:10138000C0F30723C3EBC30313B553FA80F0C0B215
:1013900000F007040949C00800EB80000022014466
:1013A00010468B5CE34003F0010393400132184385
:1013B000052AC0B2F5D102B010BD00BF0C0E00204E
:1013C0000E4B73B51E680E4BADF804001B681F244E
:1013D0001E4326FA04F3DB0706D414F1FF34F8D2D7
:1013E0000025284602B070BDE5B20199284600F0FC
:1013F00071FE80B20128F0D0F3E700BF080E002094
:10140000040E002007B5ADF804000198FFF7D8FFDF
:10141000019900F05FFE03B05DF804FB13B50E4BBD
:10142000ADF804101B7823B10198FFF7EBFF02B071
:1014300010BD60B10198FFF7C3FF04460146019853
:10144000FFF77AFF0199204600F044FEEFE701988C
:10145000FFF796FF0446F5E7000E0020F8B50346B7
:10146000002853D0002501261878732803F10104C1
:1014700006D8042820D201280AD002281FD0F8BD9F
:10148000752835D02AD3A0F184036F2B33D9F8BD4A
:101490009C1C5B7803F12002D2B2072A0BD803F020
:1014A00007039840C0B200F019FB00F057FB2F462D
:1014B00037BB2346D8E71846FFF714FBF7E7587801
:1014C0009C1C00F12003DBB2072B16D800F00700AC
:1014D00006FA00F0C0B200F009FBE6E75F789C1C5A
:1014E000002FE4D06420013F02F0D5FBFFB2F7E704
:1014F0009C1C5D78DBE700F07F00FFF77FFBD6E701
:101500006420013F02F0C7FBFFB2D1E7F8BD000045
:10151000F8B50C4B0C4E1C780C4D3378A34200D11F
:10152000F8BD05EBC40335F834005F889A88D98884
:1015300040EA074042EA01410134FFF775FE04F03A
:101540000704EAE79B0E00209A0E00205A0E0020A6
:10155000064B10B418885C889A88D98840EA044001
:1015600042EA014110BCFFF75FBE00BF520E0020EF
:10157000244B9A7912092DE9F3410CD19A7852B192
:10158000214A224F1278224CDFF888C04FF6FF7EA6
:101590003978914202D102B0BDE8F0819D886DB3E7
:1015A00018785E788DF804008DF80560BDF8041099
:1015B000714523D004EBC20191F80180B0451DD1E3
:1015C00014F83260864219D18878B8B98888401BEF
:1015D000BCF8005080B2854210D99879012262F39C
:1015E000071098718B79074862F307138B71FFF727
:1015F00093FD02B0BDE8F041FFF78ABF013202F06F
:101600000702C5E7520E00209B0E00209A0E002014
:101610005A0E0020000C00202DE9F04F8FB0B64E7E
:101620000DF1200A044601460622504603F04FFC05
:10163000B388308821786278A778B4F804B0ADF820
:101640000400B046002B00F0038185B24FF6FF7E08
:10165000754500F0FD8096F80290B9F1000F00F09A
:10166000F780A64DABEB03032D889BB29D42B37967
:1016700040F2AC8013F0F00F80B26ED1704514D000
:1016800035882088854210D13D4677B9012262F322
:101690000713B371FFF75CFF3046FFF73DFDB379E9
:1016A000A37128460FB0BDE8F08F3D46BBF1000F97
:1016B00049D08DF81C108DF81D20BDF81C004FF688
:1016C000FF7398423FD0002F3FD18D488D4B077854
:1016D0001B788D48BB420FD18DF821208DF820104A
:1016E0000898FFF78FFEC0F30332C3B2032A1DD858
:1016F000DFE802F01313212100EBC30696F801E0A6
:10170000964506D110F833E08E4502D1B678002E0A
:10171000C7D1013303F00703DCE710F4706F01D089
:10172000002BBED02033DBB2072BBAD92046FFF7FF
:10173000F3FC4D46B5E710F4706FF3D0A27912F0C8
:10174000F00FEFD1ADE7002FABD098F8063043F0A3
:10175000010388F806300025A3E7704510D03188D2
:10176000228891420CD15FB9A3712046FFF7D4FCC7
:1017700008222146304603F0AAFBFFF7E9FED8E72E
:101780002046FFF744FDE8B1E7B198F806301F2B7B
:101790000DD9B8F80020ADF8282000228DF82A20B5
:1017A000ADF82CB08DF82E300AA8FFF7B5FC082252
:1017B0002146514803F08BFBFFF7DAFEFFF7C8FE26
:1017C00001256EE72046FFF7A7FCF9E713F0F005C7
:1017D00014D18DF821208DF82270ADF824B08DF849
:1017E00020109AE80300FFF719FD3046FFF794FC3C
:1017F00008222946304603F075FB63E080B270454D
:101800000ED03188228891420AD14FB92046A37167
:10181000FFF782FC08223946304603F063FB88E775
:101820002046FFF7F4FC0028CCD0002FCAD098F84F
:1018300006301F2BBBD9B8F80020ADF830200022AD
:101840008DF83220ADF834B08DF836300CA8ACE706
:10185000B8F80000ADF81400002B67D085B24FF641
:10186000FF76B54262D098F80250002D5ED1DFF8C5
:101870008CE0ABEB0303BEF800E09BB29E4545D97C
:101880003D46002F9ED080B2B04224D0B8F8002050
:1018900023889A421FD198F80630DA0715D41A091E
:1018A00013D0A3711B090F2B1FBFA279013363F360
:1018B0000712A2712046FFF72FFC082221460E488E
:1018C00003F005FBFFF744FEEBE6082221460A4839
:1018D00003F0FDFAE5E62046FFF799FC00287FF4C7
:1018E00066AF98F80630204643F0010388F80630CA
:1018F000FFF712FCD5E600BF520E0020000C0020BE
:101900009A0E00209B0E00205A0E00208DF82120F8
:101910008DF82270ADF824B08DF820109AE80300FD
:10192000FFF77CFC082229460B4864E7002F3FF4B0
:1019300049AF2046FFF76BFC054600283FF442AF55
:1019400008222146044803F0C2FA0348FFF7C5F80D
:10195000FFF70EFEB6E700BF520E0020F0B587B0CD
:101960008DE803006846FFF757FE324E324D0746BA
:10197000B0B1BDF80430BDF80020ADF8082043B187
:1019800092B24FF6FF739A4203D09DE80300FFF72F
:101990004BFC2A4C28783378834227D107B0F0BD1E
:1019A0009DE8030004AB83E80300BDF80420BDF804
:1019B0001010ADF80C10002AEBD088B24FF6FF7172
:1019C0008842E6D030782978441C04F007048C4221
:1019D00026D01946194BADF8142003EBC00008229D
:1019E00003F075FA3470FFF793FDD2E704EBC00003
:1019F000FFF712FE0028D1D02B7834F8330004EB27
:101A0000C3035F889A88D98840EA074042EA0141C7
:101A1000FFF70AFC2B78013303F007032B70B9E7BB
:101A2000FFF7C6FB08223946054837702F7003F0D0
:101A300059FAB3E79A0E00209B0E00205A0E0020A0
:101A4000520E0020024B93F90000C0F3C70070470C
:101A5000A50E0020024B187800F00700704700BF69
:101A6000A50E0020034B187810F0070018BF0120C6
:101A7000704700BFA50E0020014B1878704700BFCB
:101A8000A70E0020024A137818431070704700BF59
:101A9000A70E0020024A137823EA00001070704756
:101AA000A70E0020014B00221A707047A70E0020DD
:101AB000024A137818431070704700BFA80E002028
:101AC000024A137823EA000010707047A80E002025
:101AD000014B00221A707047A80E0020024A1378AA
:101AE00018431070704700BFA40E0020024A1378FC
:101AF00023EA000010707047A40E0020014B002262
:101B00001A707047A40E0020014B1878704700BF70
:101B1000A60E0020704708B5FFF7FCFF08BD0000C7
:101B200008B5064B5B785B0706D4054B19788142F4
:101B300002D01870FFF7EFFF08BD00BFD4260020C9
:101B4000A60E002008B5044B1A781AB100201870B0
:101B5000FFF7E1FF08BD00BFA60E002010B50D4B3A
:101B60000D491B7809780D4C0B430D492068097805
:101B70000B430C490370097831B10B43037001F03A
:101B800037FA08B1FFF7DEFF2068BDE8104001F02A
:101B9000FDB900BFA70E0020A80E0020040C0020F5
:101BA000A40E0020A60E0020704708B5FFF7FCFF2A
:101BB00008BD00000A4A5278520710B50CD4094CEF
:101BC00041EAC0012170FFF77DFB94F90000C0F3EA
:101BD000C700FFF7EAFF10BDBDE81040FFF772BB7A
:101BE000D4260020A50E002008B5034B0020187055
:101BF000FFF7DBFF08BD00BFA50E002008B50C4AAB
:101C000092F9003023EA000040B2107042070ED172
:101C1000DBB283420BD0074B5B785B0707D4C0F382
:101C2000C700FFF759FBBDE80840FFF7DDBF08BD5F
:101C3000A50E0020D4260020094A08B55378C3F326
:101C4000800181420AD060F382035370108800F053
:101C50003AF80220BDE80840FFF7D0BF08BD00BF3A
:101C6000D4260020034B587880F00400C0F3800095
:101C7000FFF7E2BFD42600200120FFF7DDBF0020E0
:101C8000FFF7DABF4FF6FF71002000F069BF08B51B
:101C9000002000F055FF4FF6E963C31A584258413F
:101CA00008BD022000F046BF032000F043BF10B57E
:101CB000042000F03FFF0446222000F03BFF44EAEE
:101CC000002080B210BD10B5C1B20446042000F05F
:101CD00041FF210A2220BDE8104000F03BBF014631
:101CE0000F2000F045BF0146132000F041BF002047
:101CF000FFF7F9BF08B50020FFF7F1FFFFF7F7FF87
:101D000008BD000010B54FF6E961002000F028FF83
:101D10000021022000F01EFF00210320002400F01B
:101D200019FF1A4B214604201C6000F013FF2146C6
:101D3000222000F00FFF2146052000F00BFF214676
:101D4000062000F007FFFF21072000F003FF2146D7
:101D5000082000F00DFF21460D2000F0FBFE21467B
:101D6000182000F005FF2146172000F0F3FE214661
:101D70001C2000F0FDFE2146202000F0F1FE21464F
:101D8000182000F0F5FEFFF7B5FF10BD040E00208F
:101D9000FFF7B8BF01460E2000F0DCBE08B501F029
:101DA000E9F9024B1860024B186008BDAC0E002028
:101DB000B00E00207047704708B5FFF7FCFF08BD64
:101DC000704708B5FFF7FCFF08BD000008B50448E0
:101DD00000F068FAFFF7EEFFFFF7EEFF08BD00BF67
:101DE0009D2200000120704708B5FFF7FBFF08BDEA
:101DF0007047704708B5FFF7FBFFFFF7FAFF08BD14
:101E000008B501F0B5F900F03DFBFFF7DAFF08BDBA
:101E10002DE9F04F85B000F04FFB08B1FFF7BEFF92
:101E2000334F0024B8465FFA84F9484600F082FA3E
:101E3000E65DB042834616D101340F2CF3D1FF2367
:101E40008DF808308DF8093000238DF80A3001F044
:101E5000B3F940F00100ADF80C0004AB13E9030046
:101E6000FEF714FE2AE0234B1B789B0701D500F0F8
:101E700067FA002301258BEA060635425FFA83FAEA
:101E80002CD0FFF7B1FFA0B11BEA050F14BF01234F
:101E900000238DF800A08DF801908DF8023001F03C
:101EA0008BF940F00100ADF804009DE80300FEF757
:101EB000EDFD18F804305D4008F804500E4C00F0B9
:101EC0005DFD01F05BF8237883420DD001F056F8F8
:101ED000207005B0BDE8F04FFEF7D0BD01336D00B6
:101EE000072BEDB2C9D1A7E705B0BDE8F08F00BF61
:101EF000B50E0020C40E0020B40E00200020704754
:101F000070470000C1F30723C3EBC302692303FB3F
:101F1000002050FA81F0034B33F8100082B002B079
:101F2000704700BFD44F0000014B33F810007047DA
:101F30000A51000010B500F0D9F8B0F5A04F0446E2
:101F40002DD2B0F5804F80F08C80E72816D8E0289D
:101F500070D2A72808D8A52866D201286AD001D354
:101F6000042867D2002465E0BE2865D9C028F9D3CB
:101F7000C03880B2FFF7D8FF04465BE0B0F5005FE1
:101F800007D2B0F5807F60D2ED28EBD340F4A044B7
:101F900059E0B0F5405F5BD2C0F30B00EAE7B0F563
:101FA000AA4F1BD2B0F5A84FC3B279D2B0F5A44F57
:101FB00007D2B0F5A24F59D34AF2F10040EA032408
:101FC00038E0B0F5A64F61D29808012403F003036E
:101FD0009C4044EA401444F40C4434E0B0F5B24F61
:101FE0000ED2B0F5B04F60D2B0F5AC4FBAD2C0B29D
:101FF00000F0FEF8040204F4F85444F4005419E02C
:10200000B0F5B44F56D3A0F5C043B3F5005FA9D2E5
:10201000C0F3042000F0ECF8E4B2000244F40054F1
:1020200000F4F850044305E05B34E4B2274B1C5D38
:1020300044F48044204610BD5834E4B2244B33F8B5
:10204000144044F48844A4B2F4E7C0F30C04F1E76C
:1020500010F4006FC4B214BF44F4484444F4404444
:10206000E8E7C0F30B0444F42044E3E703F0030281
:1020700001249440C0F3011044F40C4444EA0024C9
:10208000C3F3810344EA43139CB2D3E798080124C5
:1020900003F003039C4044EA401444F40A44D2E7AA
:1020A0004AF2F40444EA0324C4E74AF2F00040EAA6
:1020B0000424C8E700F00F0000F09AF8C4F30314FA
:1020C00040EA042444F41044BDE700BFD8500000A7
:1020D000DC50000007B5ADF804100199FFF712FFBE
:1020E000FFF728FF03B05DF804FB0000822825D02D
:1020F0000CD8312863D004D8292859D02A2865D093
:10210000704735284DD0392818D07047E32830D093
:1021100004D8E02819D0E22826D07047E62832D02B
:10212000E72835D0E42832D1304B5A7891072ED5A4
:102130001B7813F0100F08BFE72012E02B4B1B7821
:1021400013F0030F18BFE0207047284A1378D9070F
:1021500043D4527812F0010F19D013F0100F08BFBA
:10216000E32018BF00207047204B1B7813F0040FAA
:10217000F2E71E4A1378590731D45278D20730D487
:1021800013F0100FEDE7194B1B781A07D1D47047E5
:10219000164A1378190726D452789207F0D5E4200E
:1021A000F5E7124B1B7813F0200F18BF292070475A
:1021B0000E4B1B7813F0200F18BF352070470B4BC8
:1021C0001B7813F0400F18BF2A207047074B1B786D
:1021D00013F0400F18BF3120704739207047E220BC
:1021E0007047E0207047E620704700BFD4260020EB
:1021F000294B1A78510707D500F01801082927D173
:1022000000F0F70040F00400110707D500F01801B6
:10221000182926D100F0E70040F014005B78D907B8
:1022200007D500F01801082924D100F0F70040F08C
:102230000100990707D500F01803182B23D100F0EF
:10224000E70040F01100D30648BF00F0E7007047F8
:1022500000F01401042904BF00F0FB0040F0080066
:10226000D2E700F01401142904BF00F0EB0040F0A5
:102270001800D3E700F01101012904BF00F0FE00AF
:1022800040F00800D5E700F01103112B04BF00F067
:10229000EE0040F01800D6E7D4260020002070475A
:1022A00000207047014B1860704700BF080C0020E9
:1022B000FFF7E8BC08B500F0FFF84FF47A6001F0D2
:1022C000EAFC00F0F9F8002000F034F8C30705D567
:1022D000FFF7EEFFBDE8084000F07ABF08BD08B583
:1022E000FFF7E8FF08BD000008B5FFF7D0FC08B90C
:1022F000FFF74EFDFFF7D5FC084B1870FFF7D7FC32
:10230000074B1880FFF7EBFFFFF7CEFCFEF7A5FFAA
:10231000044B1868BDE80840FEF7BBBFC40E0020A0
:10232000D4260020080E00207047704708B5FFF73C
:10233000FCFF08BD014B185C704700BFE52600207C
:102340007047032001F0A7BC00BF00BF00BF00BF63
:1023500000BF00BF00BF00BF00BF00BF00BF00BF85
:1023600000BF00BF00BF00BF00BF00BF00BF00BF75
:1023700000BF00BF00BF00BF00BF00BF00BF00BF65
:1023800000BF00BF704708B5FFF7DBFF08BD08B509
:10239000202383F311880322C0F3075120F07F60CC
:1023A00002F040F9002383F3118808BD38B50B4DC6
:1023B000002455F82400421C01D0FFF7E8FF013447
:1023C0000F2CF6D1064D002455F82400431C01D0F3
:1023D000FFF7DDFF0134072CF6D138BD285100008E
:1023E0000C5100002DE9F047244F57F821400E46CC
:1023F000611C804635D0202383F31188012524F009
:102400007F69C4F307542146062205FA04F44846BE
:1024100002F008F9C9F80840002484F31188FFF796
:1024200093FFDFF85CA0A1465AF82400421C1AD1A1
:102430000023013443EA09096D00072C5FFA89F98A
:10244000EDB2F1D157F82600431C01D0FFF79FFFF2
:1024500019F1000118BF01213046FFF794FF08F879
:102460000690BDE8F087C0F3075120F07F6002F0CE
:102470008FF90028DCD16BB2DBE700BF28510000E8
:102480000C51000010B50F24FFF790FF22460021E9
:10249000074802F027FD22460021064802F022FDEF
:1024A000204600F037F8BDE81040FEF717BA00BF2D
:1024B000E5260020D626002030B585B00F22002169
:1024C000684602F00FFD0024E1B268460134FFF7D0
:1024D00089FF0F2CF8D1224669460C4802F0E8FC2F
:1024E000002814BF0125002504D02246694607486C
:1024F00002F0EDFC2B460F220549044800F022F8BB
:10250000FEF7F5F9284605B030BD00BFD6260020FD
:10251000E526002010B5C0EBC004204602F0C0FC48
:10252000074B044418600021A04207D0C21D034697
:10253000104603F8011B9342FBD1F5E710BD00BF25
:10254000C80E00202DE9F04F9846444B85B01F7807
:102550000291054616469B46002F5BD000F00AFE0E
:102560003F4B1C681860041BFF2C21D8E4B13D4B85
:102570003D4A18680392C6EBC6030021C3180193B5
:10258000E4B28BF8001011708E468C460B468A46DA
:10259000019A90420ED1BCF1000F01D08BF80030AF
:1025A00011B1039B83F800E0B8F1000F3DD134E096
:1025B000FF24DCE700F10709027852B1944231BFF1
:1025C000121B80F800A03946BE463EBF0270BC46D2
:1025D0003B4601304845EFD1DAE717F8015F10F8C4
:1025E00001EF01F1070A85EA0E0E0B465C1A08FAA4
:1025F00004F4E4B21EEA040F06D01A7822B90126C8
:1026000083F800906540B44601335345EED13D70E8
:1026100019461AE0B8F1000F03D1134B1B78D3B160
:102620001FB900F0A7FD0E4B18600E4B9BF800C0C1
:102630001968029BC6EBC6025F1E5318681E019301
:1026400000264FF001084FF01409019B9942C4D1B4
:102650000EB18BF800C005B0BDE8F08FC50E0020AC
:10266000CC0E0020C80E0020D00E002008B501F0CE
:1026700085F8FFF7C5FBBDE8084001F095B808B53F
:1026800001F098F8FFF7C4FBBDE8084001F0B4B8CA
:1026900008B500F021FD01F06EF8FFF797FBFFF79A
:1026A000E5FFFFF7ECFFFFF7A5FBFAE7194B1B78F7
:1026B000D9070AD5184B187800EB8000C0F38F00BB
:1026C0007F2825D810BB012070479A0706D5124BEA
:1026D000187800EB8000C0F34F00F1E75B0704D5EA
:1026E0000D4B187800EB8000EAE70C4B1B7863B1C8
:1026F0000B4A12789342F3D20749087800EB800026
:10270000584390FBF2F080B2DAE70520C0B2704780
:102710007F207047DC0E00200E0C0020DD0E002014
:102720000F0C0020144B1B78D90705D5134B1878D4
:102730008008F0B9012070479A0703D50F4B18782D
:102740004008F6E75B0705D50C4B18787F28F0D9D1
:102750007F2070470A4B1B7853B10A4A1278934284
:10276000F2D20649087810FB03F090FBF2F0EDE797
:102770000120C0B2704700BFDC0E0020120C002008
:10278000DE0E0020130C0020ED2808B505D1FFF760
:102790008DFF4042294BD87008BDEE2802D1FFF7CB
:1027A00085FFF7E7EF2805D1FFF780FF4042234B75
:1027B000987008BDF02802D1FFF778FFF7E7F928F5
:1027C00004D1FFF7AFFF1D4B187108BDFA2803D1E4
:1027D000FFF7A8FF4042F6E7FB2805D1FFF7A2FF6D
:1027E0004042164B587108BDFC2802D1FFF79AFFF2
:1027F000F7E700F10F03DBB2072B08D80F4A0123DC
:10280000F13803FA00F053781843507008BDFD28E2
:1028100005D10B4A137843F00103137008BDFE285D
:1028200004D1074A137843F00203F6E7FF28F5D1F5
:10283000034A137843F00403EFE700BFD60E0020ED
:10284000DC0E0020ED28394B16D193F90320002A25
:1028500018DA0022DA7093F9022022B993F90320E2
:102860000AB933490A7093F9042022B993F9053063
:102870000BB9304A13707047EE2810D193F903203A
:10288000002AE6DC00F10F02D2B2072A37D8F1386D
:1028900001228240587820EA02005870DBE7EF28D6
:1028A00006D193F90220002AECDA00229A70D2E7CE
:1028B000F02804D193F90220002AF6DCE2E7F92897
:1028C00006D193F90420002ADCDD00221A71C2E748
:1028D000FA2804D193F90420002AD3DAF5E7FB287B
:1028E00006D193F90520002ACCDA00225A71B2E70A
:1028F000FC28C7D193F90520002AF6DCC2E7FD28A1
:1029000005D10D490A7822F001020A70A3E7FE28DA
:1029100004D109490A7822F00202F6E7FF289AD189
:1029200005490A7822F00402EFE700BFD60E002026
:10293000DD0E0020DE0E0020DC0E002008B500F0C9
:102940003BFC0B4B93F9022012B993F903200AB117
:10295000084A108093F9042012B993F905300BB19D
:10296000054B18800248BDE8084000F017BB00BFC7
:10297000D60E0020D20E0020D40E00202DE9F04704
:10298000584C94F9028094F9037094F9046094F916
:10299000055094F800A094F801900023A370E37010
:1029A00023716371B8F1000F00D157B14E4B1888F5
:1029B00000F007FC4D490B7853B34D4A1278904212
:1029C00030DC06B95DB14B4B188800F0FAFB4A4980
:1029D0000B78002B52D0494A1278904258DC94F977
:1029E000023043B994F903302BB994F9043013B988
:1029F00094F905300BB1FFF7A1FF84F800A084F82B
:102A0000019084F80280E77026716571BDE8F08757
:102A10003B4A127802EB8202B0EB420FD1DD013368
:102A20000B7001E0FF2BFAD1B8F1000F08D0FFF7CF
:102A30003DFEB8F1000FCCBF0123FF235843A07027
:102A40003FB1FFF733FE002FCCBF0123FF235843D4
:102A5000E07094F90220002AB3D094F90310002901
:102A6000AFD0B5235A43121203FB01F308BF012272
:102A70001B1208BF0123A270E370A2E7214A12785B
:102A800002EB8202B0EB420FA9DD01330B7001E0D3
:102A9000FF2BFAD13EB1FFF745FE002ECCBF01233C
:102AA000FF23584320713DB1FFF73CFE002DCCBF02
:102AB0000123FF235843607194F90420002A8ED02B
:102AC00094F9051000298AD0B5235A43121203FB4A
:102AD00001F308BF01221B1208BF01232271637199
:102AE0007DE700BFD60E0020D20E0020DD0E0020B4
:102AF0000D0C0020D40E0020DE0E0020110C002052
:102B00000C0C0020100C002008B5062200210548FE
:102B100002F0E8F9044A00231370044A1370044ACF
:102B2000137008BDD60E0020DD0E0020DE0E002042
:102B3000DC0E0020014B185C704700BFE00E002047
:102B4000034BC218185C527840EA0220704700BF5D
:102B5000E00E0020014B1954704700BFE00E00202A
:102B6000024B19541844090A41707047E00E0020C6
:102B7000044B195418440B0A43700B0C090E837054
:102B8000C1707047E00E002038B5054688780028EF
:102B900000F00C8145F603539D422DD845F6FB43CA
:102BA0009D4204D2A5F5B843023B132B28D8FFF76A
:102BB0007EF87F4C45F610439D42208000F0CF8088
:102BC00042D845F608439D4200F0A58023D845F63B
:102BD00004439D4200F08A8013D845F602439D428B
:102BE0007BD045F603439D427CD02088FFF76BF8ED
:102BF000FEF7DEFA002038BD45F662539D42D6D07E
:102C000038BD45F606439D4200F0818072D9237895
:102C100043F0200364E045F60C439D4200F08C80B5
:102C200008D845F60A439D427FD078D923786FF3C0
:102C3000000355E045F60E439D4200F085807FD9A4
:102C400023786FF304134BE045F6FD439D427FD09C
:102C500022D845F614439D4200F0988009D845F6E5
:102C600012439D4200F083807DD9237803F0F7035F
:102C700067E045F6FB439D4240D044D845F61543F6
:102C80009D42B2D1237883F00402C2F3800262F342
:102C9000820362F3C30323E045F601539D426CD0E7
:102CA0000AD845F6FF439D42637842D0B5F5BA4F46
:102CB00052D303F0FD034CE045F603539D4273D01D
:102CC0006ED345F662539D428FD12378C3F3001231
:102CD00082F0010262F3041302E0237843F001035F
:102CE000237082E7237843F00203F9E7237843F067
:102CF0000403F5E7237843F00803F1E7637843F032
:102D00000103637071E7637843F00203F9E7237806
:102D100043F01003E4E7237843F04003E0E7FEF7D5
:102D200047FA237843F08003DAE7237843F00C0373
:102D3000D6E743F00303E4E723786FF34103CFE7DB
:102D400023786FF38203CBE723786FF3C303C7E7DE
:102D500063786FF30003D4E76FF34103D1E723787F
:102D60006FF34513BCE723786FF38613B8E7FEF7DC
:102D70001FFA23786FF3C713B2E76378DA4302F0E0
:102D8000010262F3000362F34103BAE7FEF710FAAF
:102D90002378C3F3C01282F0010262F3C7139FE7E6
:102DA0000120FEF7F7FF20E70020FAE7012027E7E0
:102DB000D426002045F61643984210B50C461FD184
:102DC000FEF75AFEA1780F4A0F4B81B100F0AA001E
:102DD000002814BF012100211170186814BF35218B
:102DE000292100F046F9FEF7B9FE002010BD127847
:102DF0001868002A14BF3521292100F03CF9F2E7B8
:102E0000012010BDE01E0020040C0020F8B514467F
:102E100082789DF818701D462B4B92B11C7000F003
:102E2000CBF92A4B188004F12003DBB2072B49D8D9
:102E300004F007040120A040C0B2BDE8F840FDF74F
:102E40005EBF1E78A6422ED1204B188800F0B9F93B
:102E5000C72828D8AE4205F1200415D006F120037A
:102E6000DBB2072B06D806F007060120B040C0B23F
:102E7000FDF74EFFE3B2072B1FD805F00703012033
:102E80009840C0B2FDF73BFF3846E4B2FDF731FF92
:102E9000072C17D805F007050120A840C0B2BDE8EF
:102EA000F840FDF735BF04F12003DBB2072B09D84A
:102EB00004F007040120A040F0E73846BDE8F840E0
:102EC000FDF717BFF8BD00BFE11E0020E21E002085
:102ED00013B545F6F44304469C42084626D011D863
:102EE00045F6D9439C421CD045F6DA439C4237D084
:102EF00045F6D8439C420ED126230093E1231A467F
:102F000021461EE045F6F6439C421FD013D345F6FA
:102F1000F7439C421FD0807830B3144B00221A70C4
:102F200012E027230093E523E522E9E72623009317
:102F3000E022E123E4E727230093E422E52345F69A
:102F4000F541FFF763FF002002B010BD2623009378
:102F5000E222E123D4E727230093E622E523CFE70B
:102F6000282300930123DFE70120EDE7E11E002085
:102F7000014B1860704700BFE41E0020024B186828
:102F800008B1036818477047E41E0020024B1B6815
:102F90000BB15B6818477047E41E0020034B1B68A9
:102FA0001BB1022101709B6818477047E41E002086
:102FB000054B1988814205D01880044B1B680BB162
:102FC000DB681847704700BFEA1E0020E41E00209F
:102FD000054B1988814205D01880044B1B680BB142
:102FE0001B691847704700BFE81E0020E41E002040
:102FF000821C00F1080300209A4200D1704712F8A9
:10300000011B0029F8D00130C0B2F5E739B1831CAB
:10301000083013F8012B914203D08342F9D10020EC
:1030200070470120704730B54FF0FF33851C0022F8
:1030300015F8014B8C420CD0B3F1FF3F02D1002CAC
:1030400008BF13460132D4B2062C62B2F0D15A1C2A
:1030500000D130BD1844817030BD10B5831C0022F2
:1030600008301C788C4208BF1A7001338342F8D1B3
:1030700010BDFFF7D8BFFFF7F0BF062200210230D6
:1030800001F030BF704708B5FFF7FCFF08BD000036
:1030900008B5034B03201870FFF7F5FF08BD00BF0C
:1030A000EC1E002008B50028034B14BF02200120AD
:1030B0001870FFF7E8FF08BDEC1E0020FFF7F2BF15
:1030C00008B5034B01201870FFF7DDFF08BD00BFF6
:1030D000EC1E0020FFF7F4BF08B500F04FFEBDE87E
:1030E000084000F01DBC08B5FDF758FC40F2A46094
:1030F000BDE8084000F0CFBD7047704710B5FFF73E
:10310000FBFFFFF7D9F9FFF7F8FF0024E0B2FFF764
:1031100011F918B901340F2CF8D110BD012010BDE0
:1031200008B5FEF7BFFCFEF7D3FC084B1868FFF7A5
:10313000A4FFFFF7E9FC0020FFF73AFF0020FFF7AC
:1031400047FFBDE80840FDF731BC00BF040C00207C
:10315000202383F31188044B1A6A002383F3118818
:10316000024B1A60704700BFC8270020F01E0020E5
:10317000FFF7EEBF38B5202383F311880A4B196A95
:10318000002383F31188094B094C1B68094AC91AAB
:103190004FF47A700025E0FB0145002320462946C4
:1031A000FDF7BCF938BD00BFC8270020F01E002085
:1031B0009F860100A086010008B5FFF7DBFF80B203
:1031C00008BD10B50446FFF7D5FF001B80B210BD47
:1031D00008B542F2107000F05EFD00BE08BD0000B0
:1031E00010B5084A084C117824784B1C03F00F03E3
:1031F0009C421FBF054C13706054012008BF002083
:1032000010BD00BF0427002005270020F426002061
:10321000202383F31188002383F3118870477047BC
:1032200038B5094C10462246002542F8045F40EAB2
:103230000120194600F0E2FA63682060AB4214BF37
:103240002046284638BD00BFF41E002090F8DA3032
:10325000022B054B1A7804D1012A01D0062A02D18B
:103260005A78024B1A707047381F0020281F002020
:1032700010B50446052922D8DFE801F01D21031D01
:103280001D1F202383F311880D4A012100F0EAFD60
:103290000C4A0221204600F0E5FD002383F311884B
:1032A000094B1B7813B10520FFF79AFF0220BDE8F8
:1032B0001040FFF795BF0846F9E70520F7E710BD76
:1032C0006451000088510000311F002038B50546C8
:1032D0000C46202383F311880F4B1A78042A03D05D
:1032E000002383F3118838BD1A89520708D55B691A
:1032F00058694FF47A710C3000F0DAFC0130EFD0ED
:10330000064A054854700323240A0221157094705C
:1033100000F0FCFDE4E700BF28280020321F002059
:1033200070B504460648C3680D460BB100F04CFB6F
:103330002B462146034A0248BDE8704000F02ABBF4
:10334000141F002049330000F8B50546202383F3FD
:1033500011880378042B03D0002383F31188F8BD70
:10336000124C2278002AF7D0114B1B78002BF3D097
:1033700003899B0704D408230E4A012100F0C6FDEF
:1033800020780D4B40F2E736A0FB030180194FF087
:1033900000074FF47A724FF000037941FDF7BEF851
:1033A00029468000FFF7BCFFD6E700BF101F0020B2
:1033B000140C0020291F0020A0860100F8B590F809
:1033C000D43003F07F02212A044679D113F080051E
:1033D0002ED0002D74D090F8D500022820D00328DC
:1033E00013D001286CD194F8D83043B9444AC4F8BA
:1033F000C8200822C4F8CC20C4F8D030F8BD00237F
:10340000C4F8C830C4F8CC30F6E7B4F8D830002B94
:1034100056D13C4AC4F8C8200120C4F8CC00EBE7E0
:10342000394BC4F8C8300120C4F8CC000023E3E7CE
:1034300090F8D5300A2B3ED00B2B10D0092B3FD162
:1034400090F8D830012B3BD8304BC0F8C83002235D
:10345000C0F8CC302E4BC4F8D0300120F8BDB0F805
:10346000D85015BB90F8D630264A003318BF012338
:103470001370254B1A78C2B1202282F31188187874
:10348000244B40F2E736A0FB030180194FF0000700
:103490004FF47A724FF000037941FDF73FF821466F
:1034A0008000FFF73DFF85F311880023C4F8C83082
:1034B000C4F8CC30CFE7144B90F8D7201A70DAE775
:1034C000B4F8D42040F281639A4201D00020F8BDC4
:1034D00094F8D920616894F8D8304D6894F8D710E2
:1034E00043EA0223204694F8D620A8470028EDD0CE
:1034F0004368C4F8C8300368C4F8CC300023AAE796
:10350000291F0020140C0020101F0020381F00204D
:103510004D320000A08601007047000008B510225F
:103520000021044801F0DEFC034A00231370034A23
:10353000137008BDF4260020042700200527002072
:10354000F8B5294D294E2C4632782B78284F00218A
:103550009A4245D018460133385C03F00F0301212D
:103560000528F5D80FF2040E5EF820F0D9350000DA
:1035700051350000BD350000D13500008535000013
:103580009F35000023701B4B01221A701A4B93F8D1
:10359000DF10081C18BF0120FFF77AFDD4E7237065
:1035A000144B00221A70FFF7BBFD134B93F8DF108A
:1035B000081C18BF0120FFF775FDC5E723700E4BEF
:1035C00093F8DF10081C18BF0120FFF777FDBBE759
:1035D000002123700846F8E72370FFF77BFDB3E76F
:1035E00001B12270F8BD00BF05270020042700208C
:1035F000F4260020311F002028280020114A41F223
:10360000340310B5D3585B0348BF02F52C3204468F
:1036100048BF92F808310C4844BF03F0EF0382F82A
:10362000083100F038FB0949204600F0DCFB084A6D
:1036300092F8083143F0100382F80831054B00225C
:10364000DA6010BD00700440F0490200AC51000087
:1036500000200740141F002010B5044600F0DAFBDC
:103660000C4A0D4941F234032046D3585B0341BF55
:1036700002F52C3292F8083103F0EF0382F808319A
:1036800000F0B1FB054A92F8083143F0100382F8CC
:10369000083110BD00700440AC510000002007400C
:1036A000014B1878704700BF281F002038B5054629
:1036B000202383F31188104C2378042B0DD1238908
:1036C0009B070ED42A4601210B48082300F01EFC5C
:1036D00008222946094801F0FAFB002383F31188E8
:1036E00038BD236958694FF0FF310C3000F0E0FA23
:1036F0002378042BF1D1E5E728280020291F00209A
:1037000010B52023044683F311880D4B1A78042A40
:1037100003D0002383F3118810BD1A89520708D5FE
:103720005B6958694FF47A710C3000F0C1FA0130CE
:10373000EFD0062322460221014800F0E7FBE8E72C
:103740002828002001460320FFF7C0BD01460420C1
:10375000FFF7BCBD70477047704708B5FFF7FAFF29
:1037600000F07BFEFFF7F7FF08BD08B500F077FE1D
:10377000FFF7F2FF08BDFFF7A3BC000008B5FFF795
:10378000CDFE0648FFF73AFF054B064A1A6041F2A4
:103790008830BDE8084000F07EBA00BF282800202D
:1037A000501F0020180C0020014B1868FFF7E0BBE9
:1037B000501F002038B50F4CFFF7C2FE2378052BB1
:1037C00016D125462378052B05D0FEF7C7F9BDE8AD
:1037D0003840FFF7B3B8FFF786FCFFF78FFC0028EF
:1037E000F0D0284600F0A4FB2846FFF735FFE9E7B4
:1037F00038BD00BF2828002070470000030A032BB3
:1038000018D006D8012B0ED0022B10D00020034672
:103810000BE0212B17D0222BF8D1E9B10129F5D1EA
:103820007B200F4B01E00F4B1220136070473B20B1
:103830000D4BFAE7C0B20228E8D80C4B0C4953F8FC
:103840002030085CF1E721B10129DFD10920094BC3
:10385000EBE70920084BE8E74020084BE5E700BF0D
:10386000C052000006520000CB510000BC510000C5
:10387000C8510000F6510000DD5100001852000050
:10388000024B034A1A60034A5A6070470827002017
:103890002829002000000320094B30B51C684D1E6C
:1038A000224449422A440A4059681044884204D8B4
:1038B000844202D81860104630BD002030BD00BFE1
:1038C0000827002008B5202383F31188FFF7E4FFC1
:1038D000002383F3118808BD70477047FEE700009E
:1038E0000D4B70B503F180000024A3F1100126C92F
:1038F0000439AA4207D353F8041C8A4208D3103370
:103900008342F2D170BD51F8046F42F8046BF0E7C6
:1039100042F8044BF1E700BF4C530000FEE7000003
:1039200010B50D4C00F084F800F026F8FFF7A8FF62
:1039300080220A49204600F05FF9012344F8180C60
:10394000037400F0D5F9002383F3118862B60448AC
:10395000BDE8104000F082B9F0270020BC53000001
:10396000C4530000034B1A69937C0BB1013B937461
:1039700000F03CB8C8270020054B03F114025A613F
:103980009A614FF0FF32DA6100221A62704700BF7D
:10399000C827002010B5C2600A4A036153699C68B9
:1039A000A1420CD85C68036044602060586081606C
:1039B0009868411A99604FF0FF33D36110BD091B1D
:1039C0001B68ECE7C8270020036881689A680A44EE
:1039D0009A604268136003685A600023C360024B18
:1039E0004FF0FF32DA617047C8270020F8B50F4C5E
:1039F000226A01322262224652F8141F9142154671
:103A000006D08B68013B8B60202663699A6802B1FF
:103A1000F8BD1968DF68DA604D60616182F3118872
:103A20001869B84786F31188EFE700BFC827002060
:103A3000024B00221B605B609A607047C827002021
:103A4000002303748268054B1B6899689142FBD27E
:103A50005A6803604260106058607047C8270020B1
:103A600008B5202383F31188027C0023052A06D899
:103A7000DFE802F00B050503120E426913604FF0F8
:103A8000FF334361FFF7DCFF002383F3118808BD98
:103A9000426993680133936090E80C001A600268F1
:103AA0005360ECE7002303748268054B1B68996838
:103AB0009142FBD85A6803604260106058607047BA
:103AC000C8270020064B19691422087418688A74E4
:103AD00002681A605360186101230374FCF708BD83
:103AE000C827002030B54B1C87B005460A4C10D0C3
:103AF00023690A4A01A8FFF74DFF2846FFF7E2FFB6
:103B0000049B13B101A8FFF75FFF2369586907B051
:103B100030BDFFF7D7FFF8E7C8270020613A000063
:103B200038B50C4D41612B6981689A689142044611
:103B300003D8BDE83840FFF783BF1846FFF7B2FF50
:103B400001232C61014623742046BDE83840FCF770
:103B5000CFBC00BFC8270020084B1A6890681A69BC
:103B60009368927C22B1984294BF00200120704754
:103B7000984234BF00200120704700BFC8270020B2
:103B800010B5084C236820691A682260546001222D
:103B900023611A74FFF786FF01462069BDE81040D3
:103BA000FCF7A6BCC8270020044B1A681B69926862
:103BB0009B689A4201D9FFF7E3BF7047C8270020EE
:103BC00010B50C4C22682069116821604C600121FD
:103BD00022611174827C4AB9FFF732FF1423837487
:103BE00001462069BDE81040FCF782BCFFF75AFF90
:103BF000F6E700BFC827002010B502210174142485
:103C000000218260417484740262C161816110BDCF
:103C10008368C168A3F14C0243F81C2C026943F885
:103C20004C2C426943F8482C0B4A43F82C2C0222B6
:103C300003F8182C1420002203F8160C43F8201C5B
:103C400003F8172C43F8081C43F80C2C43F8102CED
:103C5000A3F12800704700BF0105000010B5202324
:103C600083F31188FFF7D4FF00210446FFF758FFC4
:103C7000002383F31188204610BD0000024B1B690E
:103C800058610F20FFF71EBFC8270020202383F3B1
:103C90001188FFF7F3BF08B50146202383F311888D
:103CA0000820FFF71FFF002383F3118808BD0000E1
:103CB000054B1B6921B1036058610320FFF712BF58
:103CC0004FF0FF30704700BFC827002003682BB1BA
:103CD0000022026059611846FFF7B2BE7047EFF349
:103CE0000983203383F30988002383F31188704705
:103CF000202080F3118862B60B4B0C4AD96821F45E
:103D0000E0610904090C0A430949DA60CA6842F013
:103D10008072CA6007490A6842F001020A601022F4
:103D2000DA7783F82200704700ED00E00003FA051F
:103D3000F0ED00E0001000E010B5202383F31188BF
:103D40000B4B5B6813F400630FD0EFF30984203C46
:103D50004FF08073E36184F30988FFF7FDFE10B133
:103D6000044BA36110BD044BFBE783F3118810BD26
:103D700000ED00E0130500001605000008B500F096
:103D8000ABFB054800F0E6FC00F01BF8FFF7EDFC8C
:103D9000BDE8084000F002B8E853000000F034BC71
:103DA00010B5044690F8D63080F8DE3000F044FEBE
:103DB00063681B6813B101212046984703232370D1
:103DC00010BD00F089BD012303700023436000F1A2
:103DD0004C0200F1880142F8043B8A429363FAD115
:103DE00003814381704738B50446202383F311884B
:103DF0000025416000F10C0300F14C0243F8045B24
:103E00009342FBD1204600F07FFD0223237085F30F
:103E1000118838BD70B52023064683F311883446D7
:103E200000F0D8FD00250123756004F80C3B4C36EA
:103E3000236873B1586920B16FF001010C30FFF7AE
:103E400045FF2368986920B16FF001010C30FFF73E
:103E50003DFF44F8045BB442EAD1FFF7A5FE85F3C9
:103E6000118870BD70B500EB810305465069DA60BA
:103E70000E46144618B11422002101F033F8A0694F
:103E800018B11422002101F02DF831462846BDE872
:103E9000704000F0DBBDF8B5038903F00103038136
:103EA000438903F001030446438100F1100500F14A
:103EB0004C0600272B6873B1586920B16FF00101DF
:103EC0000C30FFF703FF2B68986920B16FF00101F8
:103ED0000C30FFF7FBFE45F8047BB542EAD12046E3
:103EE000BDE8F84000F0B8BDF0B400EB81044789AC
:103EF000E4680125A4698D403D434581236000238A
:103F0000A2606360E360F0BC00F00CBEF0B400EBB4
:103F100081040789E468012564698D403D4305817A
:103F200023600023A2606360E360F0BC00F066BF22
:103F30000378052B10B50FD1084C94F8943043F05A
:103F4000040384F89430C820FFF7A5FE94F8943059
:103F500003F0FB0384F8943010BD00BF002007403D
:103F600002232DE9F041037000230446A0F8DC3061
:103F700080F8DE3080F8DF300381438100F10C06E9
:103F800000F14C074FF020081D4633689BB188F3C1
:103F900011883368586920B16FF001010C30FFF7C8
:103FA00095FE3368986920B16FF001010C30FFF77E
:103FB0008DFE85F3118846F8045BBE42E5D184F896
:103FC000C450204600F012FD63681B6823B12046F0
:103FD0000021BDE8F0411847BDE8F081F8B503784D
:103FE00080F8E0300523037043681B6804460BB17A
:103FF0000421984700232381638104F10C052027C5
:104000004C341E462B689BB187F311882B68586986
:1040100020B16FF001010C30FFF758FE2B68986952
:1040200020B16FF001010C30FFF750FE86F31188CC
:104030000435A542E6D1F8BD436890F8E0201B683E
:1040400002700BB1052118477047000090F8C4308A
:1040500070B5044613B1002380F8C43004F1D402D3
:10406000204600F033FD63689B685BBB94F8D45036
:1040700015F0600614D194F8D53005F07F0545EAB7
:10408000032540F202339D4200F0128162D8022DD6
:1040900000F0DD8043D8002D7ED0012D00F0CF80D0
:1040A0000021204600F0D8FE0021204600F0C8FE86
:1040B00063681B6813B1062120469847062384F8DD
:1040C000C43070BD204698470028CFD094F8DB203C
:1040D00094F8DA3043EA0223D4F8CC20934238BF74
:1040E000C4F8CC3094F9D430D4F8CC50002B4FF035
:1040F000200380F2FE80002D00F0ED80092284F87C
:10410000C42083F311880021D4F8CC30D4F8C8201F
:104110002046FFF7FBFE002383F3118870BDB5F541
:10412000817F00F0B280B5F5407F3FD0B5F5807F4C
:10413000B6D194F8D630012BB2D1B4F8DC3023F0EC
:104140000203A4F8DC30C4F8C860C4F8CC60C4F83A
:10415000D060BBE740F201639D420DD8B5F5C06F5A
:104160002ED2B5F5A06F9BD16F4BC4F8C860C4F8D0
:10417000CC60C4F8D030A9E7B5F5106F38D040F660
:1041800002439D425BD0B5F5006F89D104F1DF0396
:10419000C4F8C830012328E004F1DC03C4F8C830B7
:1041A0000223C4F8CC30C4F8D0508FE794F8D6304E
:1041B000012B7FF475AFB4F8DC3043F00203C0E7A5
:1041C00094F8D920616894F8D8304D6894F8D710E5
:1041D00043EA0223204694F8D620A84700283FF45B
:1041E0005FAF4368C4F8C8300368C4F8CC30AEE7AA
:1041F0002378042B10D1202383F311882046FFF766
:104200004AFE86F31188636884F8DF601B68032127
:1042100021700BB12046984794F8D6304BB184F802
:10422000DF300423237063681B6813B1022120462A
:1042300098470023C4F8C830C4F8CC3099E73B4B0A
:10424000C4F8C8300223C4F8CC30002391E794F8B6
:10425000D81011F0800F204601F00F010CD000F0B3
:104260001FFC01280BD002287FF41AAF304BC4F892
:10427000C830C4F8CC006AE700F0FCFBF1E72D4B36
:10428000C4F8C830C4F8CC5061E794F8D630002B9D
:104290007FF406AF94F8D83013F00F01C9D01A0696
:1042A000204602D500F0F0FDC3E700F0E1FDC0E7D5
:1042B00094F8D630002B7FF4F3AE94F8D83013F096
:1042C0000F01B6D01B06204602D500F0C5FDB0E7B1
:1042D00000F0B6FDADE7142284F8C42083F3118802
:1042E0002B462A4629462046FFF7FEFD85F3118816
:1042F00070BD6DB1152284F8C42083F311880021AC
:10430000D4F8CC30D4F8C8202046FFF7EDFD02E702
:104310000B2284F8C42083F311882B462A462946B1
:104320002046FFF7F3FDE1E7A13D0000E553000063
:10433000E1530000E353000038B590F8C430044660
:10434000152B2AD8DFE803F04029292929294029FB
:10435000290B2A3A2929292929292929404090F875
:10436000DB1090F8DA20D0F8CC3042EA01229A42F1
:1043700014D9C268128AB3FBF2F502FB15356DB988
:10438000202383F311882B462A462946FFF7BEFDDA
:1043900085F311880A2384F8C43038BD142384F8C7
:1043A000C430202383F3118800231A46194620467F
:1043B000FFF79AFD002383F3118838BDD0F8D03081
:1043C00003B198470023E6E7002100F045FD0021F6
:1043D000204600F035FD63681B6813B106212046B6
:1043E00098470623D7E790F8C420152A38B5044625
:1043F00023D80123934040F6416213421ED113F4A7
:1044000080150FD19B0218D50B2380F8C4302023D0
:1044100083F311882B462A462946FFF777FD85F35B
:10442000118838BDC3689B695B6833B9D0F8D03058
:1044300003B19847002384F8C43038BD002100F050
:104440000BFD0021204600F0FBFC63681B6813B1E4
:104450000621204698470623EDE700F045B870474F
:1044600010B50022044608460121FFF72BFA18B9BF
:104470000C2323604FF0FF3010BD704700F1604304
:1044800000F01F02400903F5614309018000C9B231
:1044900000F1604083F8001300F561400123934070
:1044A000C0F880310360704700F01F03420901210A
:1044B00099402032034B43F822100344002283F832
:1044C0000023704700E100E000F16040090100F5C1
:1044D0006D40C9B201767047024A136823F00103A8
:1044E0001360704700D000403A4A3B494CF22053D9
:1044F00030B5D3814DF62813D3811388374D23F07F
:1045000001031B041B0C138041F2380289B08B5845
:1045100043F478538B50324BAA221A700FCD6C465D
:104520000FC495E80F0084E80F002E4A002393641F
:10453000D36402F5E0328A211170A2F58052A421E1
:1045400051705DF82320B2F5007F3DD1DBB2DB0076
:10455000254A03F0380343F08003137013469A7919
:104560009107FCD59A79D206FCD41F4A937903F0BF
:104570000C03082BFAD11A4B60225A70DA78802A81
:10458000FCD1194B01221A714E225A719A7902F00C
:104590006002602AFAD1104A41F244014FF0827061
:1045A000505041F248000021115041F204004FF4F4
:1045B00080341450197002F5E832937903F00C033B
:1045C0000C2BFAD109B030BD0133082BB9D1072328
:1045D000BDE700BF0020054000700440B44F00005C
:1045E00000E00740009004400040064008B520234A
:1045F00083F31188FFF7B6F9002383F31188BDE830
:104600000840FFF799BB0000054B40F2AF425A60EB
:1046100000229A6007221A6008210B20FFF754BF7E
:1046200010E000E00123062A30B503FA01F3404D03
:1046300044690CD12343A842436172D13D484FF4F1
:10464000807351E03C4B984208D13C4812E024EA88
:104650000303A8424361F5D136480BE0384B98423A
:104660003CD0403398423BD0364B374CA0420CBF35
:1046700018460020162A59D801A353F822F000BF8B
:104680003F460000FB4600003F460000EF460000AA
:10469000F5460000FB4600003F460000E5460000EE
:1046A0002D4700002D4700002D4700002D4700003A
:1046B0002D4700002D4700002D4700002D4700002A
:1046C0003F460000FF460000054700000B47000082
:1046D00011470000174700001D4700001B48C9E7AD
:1046E0001B48C7E74FF4907340F8213030BD40F2CB
:1046F0000313F9E74FF48173F6E70023F4E74FF46F
:104700000073F1E74FF44073EEE74FF48063EBE79B
:104710004FF4A063E8E74FF4C063E5E74FF4E063CC
:10472000E2E7054B984299D1044888E730BD00BFC5
:1047300000F00F400090044040F00F4000A0044003
:1047400080F00F4000D0044000F10F4000B0044062
:1047500000C004400D4941F23802F8B58B5843F4CB
:1047600078538B50064600240025371906E0691E51
:1047700057F825203059C9B2FFF754FF0135212DD4
:10478000F5D18434B4F5257FEED1F8BD0070044036
:104790000069C84000F0010070470000064B1A781D
:1047A0003F2A00D9FEE71878C0B2421CD2B21A7074
:1047B000024B03EB80107047C0260020002200202F
:1047C00000EB81002DE9F843C568AC690023F4B122
:1047D000688AA374E374264E8C00030443F08803B4
:1047E00046F83430C0B2FFF7D9FF06EB411344F06E
:1047F00001045860688A030443F0C80346F8343063
:10480000C0B2FFF7CBFF06EBC404606008246B69FD
:10481000F3B18F00164E287C47F002094FF00008D4
:1048200083F8108083F8118046F83980FFF7B6FFCF
:1048300006EBC90947F00307C9F8040046F83780BA
:10484000287CFFF7ABFF06EBC70644F0040470605A
:104850002B6803F00303012B02D044F001040BB1D9
:1048600044F010043031034B03F82140BDE8F883D5
:10487000002000200020074000EB8100F0B5C36855
:10488000144D58691B8A047C890041F002019A4248
:1048900041EA040128BF1A4605EBC10400239342F4
:1048A00011D1427C1B04940143F0880304F04004BE
:1048B000234345F83130037C82F0010283F0010389
:1048C00042740374F0BD8668F75C6668F754013380
:1048D000E5E700BF0020002008B50948FFF773FA9C
:1048E000084B41F204020020995841F4802199506C
:1048F00041F248015850995841F44031995008BD4F
:1049000028280020007004400378012B10B459D1EE
:104910002D4B984256D12D49002318460A4641F89E
:10492000330001EBC3040133102B6060F7D1284B37
:10493000996841F2340041F400019960195841F43A
:104940008021195003F52C3393F8441141F00201F2
:1049500083F8441193F8401141F0800183F840112D
:1049600093F80C1141F0800183F80C1193F80C11AD
:104970000906FBD4C2F3072183F89C10C2F3074158
:10498000120E83F8B01083F8B420FF2283F8802041
:1049900083F888201A7493F80C2142F0400283F8BF
:1049A0000C21032283F89420002283F8002193F83D
:1049B000842042F0010283F884200521352010BCB8
:1049C000FFF75CBD10BC70472828002000200020A5
:1049D000007004400378012B05D1034B984202D1AB
:1049E0003520FFF761BD7047282800200F4B70B5B8
:1049F0000F4C00251D70022384F894300D4BC360CA
:104A000006462946FFF7DCFEFF2384F8883084F849
:104A1000803086F8DE5084F8985084F88C309F23DC
:104A200084F88430012384F8943070BDC0260020BF
:104A3000002007407C56000090F8DE30024A03F068
:104A40007F0382F89830704700200740102901D872
:104A5000FFF7B6BE70470000054A0123002003F1AE
:104A600030010133102B02F82100F8D1704700BF4C
:104A7000002007400F2911D8890001F1804101F57C
:104A8000E42191F8C00010F0080008D091F8C0307F
:104A900013F0020F14BF012002207047002070475E
:104AA0000F2911D8890001F1804101F5E42191F825
:104AB000C00010F0040008D091F8C03013F0020FCD
:104AC00014BF0120022070470020704700EB8100D6
:104AD000F0B5C368124F9D69AC7C8E00344300234F
:104AE00007EBC40EDEF80410C95CD1540133082B67
:104AF000F8D1C268538A1B0443F0880147F8341088
:104B0000E97C39B1A97C81F00101314343F0C8034C
:104B100047F83130526901235374EB74F0BD00BF84
:104B20000020002000EB8101C9688A69136813B96D
:104B3000012313827047498A0B44013BB3FBF1F315
:104B4000F7E7000000EB81032DE9F041DE68154F27
:104B5000B469738AA57C934228BF134645EA810550
:104B6000984607EBC50E0023434511D1E27C738ABA
:104B700096011B0406F0400643F08803334382F09D
:104B8000010247F83530E274BDE8F041FFF7CABFD3
:104B9000DEF804C0A2681CF803C002F803C00133A9
:104BA000E2E700BF002000202DE9F84F904C94F878
:104BB0008050EDB26F0707D58E484368DB6803B1BC
:104BC0009847042384F88030DFF82492894C2E071C
:104BD0000DD4EC0740F1D7808648FFF7C1F9844B2C
:104BE000012283F88020BDE8F84FFFF7A5B899F8B7
:104BF0009030DBB21D09AF1C04EB870256689A089F
:104C000002F0010AC3F3C0034AEA850A4AEA430AEA
:104C100023B9B36913B102F001029A74DFF8D8B175
:104C20005BF83A20C2F38303092B58D00D2B41D0F7
:104C3000012B4DD1B369002B4AD0C2F30948202380
:104C400083F31188424629462046FFF77BFF002365
:104C500083F31188B8F1000F3AD0B3699A684244DF
:104C60009A605A6842445A601A68A2EB08021A60B5
:104C70001A8A013A92B21A82738A434500D83ABB23
:104C8000F3682BB3012303FA05F2638923EA0203D5
:104C9000638104EB87035B68DB6813B12946204618
:104CA0009847202383F3118804EB87077B68986972
:104CB000416864E0638923F00103638129467368D6
:104CC0002046984799F8943003F0DF0389F8943030
:104CD000082389F8803099F88050EDB277E773693E
:104CE000002BF5D0ADB9B4F8D4305BBA9BB2B3F5B4
:104CF000A06F0ED194F8D63084F8DE302046FFF74E
:104D00009BFE63681B6813B101212046984703236B
:104D1000237073695BF83A2058681968C2F3094236
:104D200010448842586010D299680A449A6020233F
:104D300083F3118873690CCB2946D21A2046FFF7FA
:104D40009BFD002383F31188C2E7B368002BBFD01B
:104D5000012303FA05F2238923EA0203238104EBEA
:104D600087035B689B6813B1294620469847202338
:104D700083F3118804EB870700217B6858690C30A6
:104D8000FEF7A4FFDDE7280642BF194B802283F817
:104D90008020A90708D5164B93F88820D2B283F853
:104DA0008820022283F88020EA0610D51148037873
:104DB000042B08D1FFF712F90D4A92F8843043F022
:104DC000200382F884300A4B102283F88020AB063F
:104DD0007FF509AF064C074894F8843003F0DF03F1
:104DE00084F88430FFF728F9202384F88030FAE62D
:104DF00000200740282800200020002070B4A1B91E
:104E000090F8C4300B2B10D1C3680C4D9C695B8AA1
:104E1000A27C1B0443F0C80645F8326082F0010210
:104E200043F0880345F83230E17400EB810370BC35
:104E3000DB685B691A68FFF71FBD00BF0020002018
:104E4000890001F1804101F5E42191F8C03043F07F
:104E5000020381F8C0307047890001F1804101F5FB
:104E6000E42191F8C03043F0020381F8C03070476C
:104E7000890001F1804101F5E42191F8C03003F08F
:104E8000FD0381F8C0307047890001F1804101F5D0
:104E9000E42191F8C03003F0FD0381F8C030704781
:104EA000024B0146186800F025B800BF300C002006
:104EB00010B501390244904201D1002010BD10F814
:104EC000013B11F8014FA342F5D0181B10BD10B5DE
:104ED000431E0A44914200D110BD11F8014B03F862
:104EE000014FF7E702440346934200D1704703F8AD
:104EF000011BF9E770B5CD1C25F0030508350C2D15
:104F000038BF0C25002D064601DBA94203D90C232E
:104F10003360002070BD00F04BF8234A146821462E
:104F200091B9224C23681BB93046FFF799FA2060EB
:104F300029463046FFF794FA431C26D10C233360F0
:104F4000304600F036F8E4E70B685B1B1AD40B2BF5
:104F50000FD90B60CD50CC18304600F02AF804F180
:104F60000B00231D20F00700C31A1BD05A42E25049
:104F700070BD8C420DBF63684B686360136018BFDF
:104F80000C46E9E70C464968CAE7C41C24F0030450
:104F9000A04205D0211A3046FFF762FA0130CDD089
:104FA0002560D9E770BD00BFCC260020D0260020A8
:044FB000704770478F
:104FB400200000004000000080000000000100000C
:104FC40000020000000400000005000000060000CC
:104FD4002E0029002B0026620000000000001E00A5
:104FE400140004611D005000000000001F001A009E
:104FF40016641B004F00E30000002000080007684F
:10500400060031004A002A00210015000900190099
:10501400000000000A01220017000A000500350004
:10502400E200E00023001C000B0011002F002C0004
:10503400E700240018000D00100000002800000004
:1050440025000C000E7836003000E4001B04260016
:1050540012000F74370052000000E600270013000E
:10506400337138005100000000002D00310034007D
:10507400277200000000000029003C003F004200AD
:105084004500480000003A003D004000430046004F
:10509400005C00003B003E0041004400470000006B
:1050A400000081828300E200E900EA00B500B60056
:1050B400B700CD008301CC008A0192019401210242
:1050C400230224022502260227022A02B300B40086
:1050D4006F00700081828300E200E900EA00B500FD
:1050E400B600B700CD008301CC008A01920194017F
:1050F4002102230224022502260227022A02B300E7
:10510400B4006F007000000040F03F40C0F01F404A
:1051140080F00F40C0F05F4080F01F4040F02F400F
:10512400C0F04F40C0F03F4080F03F4080F04F401F
:1051340080F06F40C0F02F4040F00F40C0F07F403F
:1051440000F0CF4000F0DF4040F01F4140F00F413D
:10515400C0F00F4040F01F4080F02F40C0F06F407F
:1051640003000000000000001935000000000000EA
:1051740008000000FC1E00200000000002000000E7
:105184000000000003000000000000001F320000C7
:1051940000000000200000003C1F00200000000070
:1051A4000200000000000000713200002132000003
:1051B400BD33000011320000585200005C52000060
:1051C4009E52000004402009023B00020100A0326C
:1051D4000904000001030101000921110100012259
:1051E40040000705810308000109040100010300D0
:1051F4000000092111010001227B00070582032020
:105204000001120100020000004009125C34010098
:105214000102000105010906A101050719E029E7BA
:105224001500250195087501810295017508810114
:105234000507190029FF150026FF0095067508814A
:105244000005081901290595057501910295017557
:10525400039101C0040309044003220068007400A0
:105264007400700073003A002F002F00670069007B
:1052740074006800750062002E0063006F006D000A
:105284002F00730074006100700065006C00620000
:1052940065007200670022000000200322006B00FA
:1052A40069006E005400200028006B0069006E0045
:1052B40074003300360029002200000005010902B1
:1052C400A10185020901A100050919012908150098
:1052D40025019508750181020501093009311581FF
:1052E400257F95027508810609381581257F95016A
:1052F40075088106050C0A38021581257F9501750C
:10530400088106C0C005010980A101850319012A8D
:10531400B700150126B700950175108100C0050C72
:105324000901A101850419012AA002150126A00280
:10533400950175108100C0003C5700000000FF1F5C
:105344000000FF1F0000FF1F3C570000242900201D
:1053540024290020242900203C57000000000014C8
:1053640000000014000000143C570000000000007E
:1053740000000000000000003C5700000000000096
:1053840000000000000000003C5700000000000086
:1053940000000000000000003C5700000000000076
:1053A40000000000000000003C5700000000000066
:1053B40000000000000000006D61696E0000000044
:1053C400DC53000010270020C82700200100000043
:1053D4001D3900000000000069646C6500000001D4
:1053E4000000000000F00F40160000000100000063
:1053F400010000001600000001000000060000008B
:105404000100000001000000010000000100000094
:10541400010000000100000006000000060000007A
:105424000600000006000000060000000600000060
:10543400050000000500000001000000010000005C
:105444000100000001000000010000000100000054
:105454000600000001000000060000000600000035
:10546400010000000100000040F00F4006000000B1
:105474000600000006000000060000000600000010
:10548400060000000100000001000000010000000F
:1054940001000000060000000600000001000000FA
:1054A40001000000010000000100000012000000E3
:1054B40012000000060000000600000006000000C4
:1054C40006000000060000000600000001000000C5
:1054D40001000000010000000100000001000000C4
:1054E40001000000010000000100000080F00F40F6
:1054F4000600000006000000060000000600000090
:10550400060000000600000006000000060000007F
:10551400060000000600000006000000060000006F
:105524000100000001000000010000000100000073
:105534000100000001000000010000000100000063
:105544000100000001000000010000000100000053
:105554000100000001000000010000000100000043
:105564000100000001000000010000000100000033
:10557400C0F00F4006000000060000000600000016
:1055840006000000060000000600000006000000FF
:1055940006000000060000000600000001000000F4
:1055A40006000000060000000600000006000000DF
:1055B40006000000010000000100000001000000DE
:1055C40001000000010000000100000001000000D3
:1055D40001000000010000000100000001000000C3
:1055E40001000000010000000100000001000000B3
:1055F4000100000000F10F40130000001300000040
:10560400130000001300000013000000130000004A
:10561400060000000100000001000000010000007D
:105624000600000006000000010000000100000068
:105634000100000001000000010000000100000062
:105644000100000001000000010000000100000052
:105654000100000001000000060000000600000038
:10566400060000000100000001000000010000002D
:105674000100000001000000000000004D40000097
:1056840039430000E7430000400040001029002097
:0C5694001428002001000000C1260020A6
:0856A000ACAEFF7F0100000029
:1056A800C80000009C0E0020A12200000614040A75
:1056B8001E64010101000000A1360000AD360000A3
:1056C80001370000453700004D370000000000009A
:1056D800340C002000000000000000000000000062
:1056E80000000000000000000000000000000000B2
:1056F80000000000000000000000000000000000A2
:105708000000000000000000000000000000000091
:105718000000000000000000000000000000000081
:105728000000000000000000000000000000000071
:04573800000000006D
:04000003000004E90C
:00000001FF
